:1000000012C019C018C017C016C015C014C013C044
:1000100012C011C010C00FC00EC00DC00CC00BC06C
:100020000AC009C008C011241FBECFE5D4E0DEBF5E
:10003000CDBF60D0A0C0E4CF10BC89E189B988E110
:100040008AB986E880BD08955D9BFECF8CB908957E
:10005000CF93DF93EC018991882329F0082E000CBF
:10006000990BF2DFF8CFDF91CF910895329A3D9A44
:1000700087B18F7387B9089527B117B8823091057A
:1000800081F034F4009759F0019781F4389A0EC04A
:100090008330910541F0049749F43A9A07C087B13B
:1000A00004C0399A03C087B1836087B9379A369AFA
:1000B0003699FECF0895CF93DF93CDB7DEB72A9759
:1000C0000FB6F894DEBF0FBECDBF3699FECF85B117
:1000D0004AE0BE016F5F7F4F90E01AD0CE010196DB
:1000E000B7DF2A960FB6F894DEBF0FBECDBFDF9103
:1000F000CF910895A1DFBADFB898B09BFECF80E022
:1001000090E0BADFD8DF85E38A95F1F70000F5CFFC
:10011000BB274A3031F4992322F4BDE290958195B2
:100120009F4F01C0BB27FB015527AA27880F991FA6
:10013000AA1FA41710F0A41B83955051B9F7A05D16
:10014000AA3308F0A95DA193009779F7B111B19393
:100150001192CB0100C0DC01FC01672F7191772364
:10016000E1F7329704C07C916D9370836291AE1772
:0A017000BF07C8F30895F894FFCF0D
:00000001FF
