:1000000012C019C018C017C016C015C014C013C044
:1000100012C011C010C00FC00EC00DC00CC00BC06C
:100020000AC009C008C011241FBECFE5D4E0DEBF5E
:10003000CDBF61D0A3C0E4CF10BC89E189B988E10C
:100040008AB986E880BD08955D9BFECF8CB908957E
:10005000CF93DF93EC018991882329F0082E000CBF
:10006000990BF2DFF8CFDF91CF910895329A3D9A44
:1000700087B18F7387B93F9A089527B117B8823037
:10008000910581F034F4009759F0019781F4389A82
:100090000EC08330910541F0049749F43A9A07C0A5
:1000A00087B104C0399A03C087B1836087B9379A92
:1000B000369A3699FECF0895CF93DF93CDB7DEB74A
:1000C0002A970FB6F894DEBF0FBECDBF3699FECF8C
:1000D00085B14AE0BE016F5F7F4F90E01CD0CE013A
:1000E0000196B6DF2A960FB6F894DEBF0FBECDBFDD
:1000F000DF91CF910895A0DFB9DFB89880E090E05C
:10010000BCDF8BE290E0A0DF8FE39CE90197F1F781
:1001100000C00000F3CFBB274A3031F4992322F40A
:10012000BDE2909581959F4F01C0BB27FB015527EC
:10013000AA27880F991FAA1FA41710F0A41B839544
:100140005051B9F7A05DAA3308F0A95DA1930097BB
:1001500079F7B111B1931192CB0100C0DC01FC0120
:10016000672F71917723E1F7329704C07C916D93EB
:1001700070836291AE17BF07C8F30895F894FFCF5C
:00000001FF
